:100000000C94240A0C94410A0C94410A0C94410A61
:100010000C94410A0C94CA0B0C94410A0C94260BC4
:100020000C94410A0C94410A0C94410A0C94410A24
:100030000C94410A0C94410A0C94410A0C94410A14
:100040000C94410A0C94410A0C94410A0C94410A04
:100050000C94410A553320005538200055392000B2
:1000600055332F55382000540058005C006000487C
:100070006F68656D61726B20004F62657275727397
:10008000656C20426866200052696564626572672B
:10009000200047696E6E6865696D20004E2D4573BE
:1000A0006368626163682000537565646261686EAD
:1000B000686F6620004865646465726E6865696D86
:1000C00020006F007900880092009C00A800B50015
:1000D000FFFF6002123E07001240070012010700F6
:1000E000003E0A0000400A0000010A00243E0D0004
:1000F00024400D0024010D00123E1600124016008F
:1001000012011600003E28000040280000012800CF
:10011000243E2B0024402B0024012B00123E3400EF
:100120001240340012013400013E460001404600F6
:1001300001014600123E52001240520012015200CC
:10014000121FF40012200601121F1201001F1701D6
:10015000241F1801121F240112202401124024011F
:10016000001F33010020360100403601241F3601F4
:100170002420390124403901121F4201122042017A
:1001800012404201001F5101002051010040540162
:10019000241F54012420570124405701121F5801E5
:1001A000001F60011220600112406001241F6301E2
:1001B000121F6701001F6F0100206F0100407201D4
:1001C000241F72012420750124407501121F76013D
:1001D000001F7E0112207E0112407E01241F81013A
:1001E000121F8501001F8D0100208D01004090012C
:1001F000241F90012420930124409301121F940195
:10020000001F9C0112209C0112409C01241F9F0191
:10021000121FA301001FAB010020AB010040AE0183
:10022000241FAE012420AE012440B101121FB201EF
:10023000001FBA011220BA011240BA01241FBD01E9
:100240002420BD01121FC101001FC9010020C901E6
:100250000040CC01241FCC012420CC012440CF013C
:10026000121FD001001FD8011220D8011240D8015E
:10027000241FDB012420DB01121FDF01001FE70127
:100280000020E7010040EA011220EA01241FEA01F0
:100290002420EA012440ED01121FEE01001FF601A7
:1002A0001220F6011240F601241FF9012420F90161
:1002B000121FFD01001F0502002005020040080278
:1002C000241F08022420080224400B02121F0C02E3
:1002D00012200C02001F140200201402124014020B
:1002E000241F17022420170224401A02121F1B0287
:1002F00012201B02001F23020020230212402302AF
:1003000000402602241F260224202602244029021F
:10031000121F2A0212202A02001F3202002032027B
:1003200012403202241F35022420350224403802B4
:10033000121F390212203902001F4102002041021F
:100340001240410200404402241F4402242044027F
:10035000121F46022440470212204802001F50028A
:100360000020500212405002241F53022420530246
:10037000121F55021220550224405602001F5F0230
:1003800000205F0212405F0200406202241F6202EE
:1003900024206202121F64021220640224406502BB
:1003A000001F6E0200206E0212406E02241F7102B6
:1003B00024207102121F730212207302244074025F
:1003C000001F7D0200207D0212407D02004080025D
:1003D000241F800224208002121F82021220820227
:1003E00024408302001F8C0200208C0212408C02E9
:1003F000241F8F0224208F02121F910212209102CB
:1004000024409202001F9B0200209B0212409B028C
:1004100000409E02241F9E0224209E02121FA00262
:100420001220A0022440A102001FAA020020AA025A
:100430001240AA02241FAD022420AD02121FAF02F7
:100440001220AF022440B002001FB9020020B902FE
:100450001240B9020040BC02241FBC022420BC028E
:10046000121FBE021220BE022440BF02001FC8029B
:100470000020C8021240C802241FCB022420CB0255
:10048000121FCD021220CD022440CE02001FD7023F
:100490000020D7021240D7020040DA02241FDA02FD
:1004A0002420DA02121FDC021220DC022440DD02CA
:1004B000001FE6020020E6021240E602241FE902C5
:1004C0002420E902121FEB021220EB022440EC026E
:1004D000001FF5020020F5021240F5020040F8026C
:1004E000241FF8022420F802121FFA021220FA0236
:1004F0002440FB02001F04030020040312400403F5
:10050000241F070324200703121F090312200903D5
:1005100024400A03001F1303002013031240130397
:1005200000401603241F160324201603121F18036D
:100530001220180324401903001F22030020220365
:1005400012402203241F250324202503121F270302
:100550001220270324402803001F31030020310309
:100560001240310300403403241F34032420340399
:10057000121F36031220360324403703001F4003A6
:100580000020400312404003241F43032420430360
:10059000121F45031220450324404603001F4F034A
:1005A00000204F0312404F0300405203241F520308
:1005B00024205203121F54031220540324405503D5
:1005C000001F5E0300205E0312405E03241F6103D0
:1005D00024206103121F6303122063032440640379
:1005E000001F6D0300206D0312406D030040700377
:1005F000241F700324207003121F72031220720341
:1006000024407303001F7C0300207C0312407C0302
:10061000241F7F0324207F03121F810312208103E4
:1006200024408203001F8B0300208B0312408B03A6
:1006300000408E03241F8E0324208E03121F90037C
:100640001220900324409103001F9A0300209A0374
:1006500012409A03241F9D0324209D03121F9F0311
:1006600012209F032440A003001FA9030020A90318
:100670001240A9030040AC03241FAC032420AC03A8
:10068000121FAE031220AE032440AF03001FB803B5
:100690000020B8031240B803241FBB032420BB036F
:1006A000121FBD031220BD032440BE03001FC70359
:1006B0000020C7031240C7030040CA03241FCA0317
:1006C0002420CA031220CC032440CD03121FCE03E2
:1006D000001FD6030020D6031240D603241FD903DF
:1006E0002420D9031220DB032440DC03121FDD0386
:1006F000001FE5030020E5031240E5030040E80386
:10070000241FE8032420E8031220EA032440EB031B
:10071000121FEC03001FF4030020F4031240F40343
:10072000241FF7032420F7031220F9032440FA03BF
:10073000121FFB03001F03040020030412400304E4
:1007400000400604241F0604242006041220080486
:1007500024400904121F0A04001F1204002012047E
:1007600012401204241F150424201504122017041B
:1007700024401804121F1904001F21040020210422
:100780001240210400402404241F240424202404B3
:100790001220260424402704121F2804001F3004BE
:1007A0000020300412403004241F3304242033047A
:1007B0001220350424403604121F3704001F3F0462
:1007C00000203F0412403F0400404204241F420422
:1007D000242042041220440424404504121F4604ED
:1007E000001F4E0401204E0412404E04241F5104E9
:1007F000242051041220530424405404121F550491
:10080000001F5D0400205D0412405D040040600490
:10081000241F600424206004122062042440630426
:10082000121F6404001F6C0401206C0412406C044D
:10083000241F6F0424206F041220710424407204CA
:10084000121F7304001F7B0400207B0412407B04F2
:1008500000407E04241F7E0424207E041220800495
:1008600024408104121F8204001F8A0412408A045B
:10087000241F8D0424208D0424409004121F910411
:1008800012209404001F9904002099041240990436
:1008900000409C04241F9C0424209C0424409F04AA
:1008A000121FA004001FA8041220A8041240A804CC
:1008B000241FAB042420AB042440AE04121FAF0459
:1008C000001FB7041220B7041240B7040020BA0476
:1008D0000040BA04241FBA042420BD042440BD04EF
:1008E000121FBE04001FC6041220C6041240C60414
:1008F000241FC9042420CC042440CC04121FCD049E
:10090000001FD5041220D5041240D5040020D804BD
:100910000040D804241FD8042420DB042440DB0436
:10092000121FDC04001FE4041220E4041240E4045B
:10093000121FEB04001FF3041220F3041240F3040F
:100940000020F6040040F604241FF6042420F904D5
:100950002440F904121F020512200205124002056C
:10096000011F0505121F1105122011051240110566
:10097000001F14050020140500401405241F17054E
:100980002420170524401705121F200512202005DA
:1009900012402005121F2F0512202F0512402F058F
:1009A000001F32050020320500403205241F3505A6
:1009B0002420350524403505121F3E0512203E0532
:1009C00012403E05121F4D0512204D0512404D05E7
:1009D000001F50050020500500405005241F5305FE
:1009E0002420530524405305121F5C0512205C058A
:1009F00012405C05121F6B0512206B0512406B053F
:100A0000001F6E0500206E0500406E05241F710555
:100A10002420710524407105121F7A0512207A05E1
:100A200012407A05121F8905122089051240890596
:100A3000001F8C0500208C0500408C05241F8F05AD
:100A400024208F0524408F05121F98051220980539
:100A500012409805FFFF6502363E08003640080048
:100A6000360108002340120023011200233E140027
:100A7000353E14003540140035011400353E170092
:100A80003540170035011700363E28003640280053
:100A9000360128002340300023013000233E32007D
:100AA000353E3200363E32003640440036014400C6
:100AB0003640620036016200351FEE00351FF80037
:100AC000351F07013520070136401301351F160178
:100AD00035201601231F200135402201351F250135
:100AE00035202501351F280136403101351F3401DD
:100AF0003520340135403401231F3E0123203E01BF
:100B000023403E0135404001351F4301352043015C
:100B1000351F4601351F5201352052013540520123
:100B2000351F5A01231F5C0123205C0123405C0117
:100B300035405E01351F610135206101351F6901B6
:100B4000351F70013520700135407001351F780167
:100B5000231F7A0123207A0123407A0135407C014A
:100B6000351F7F0135207F01351F8701231F890134
:100B7000351F8E0135208E0135408E01351F9601BF
:100B8000231F9801232098012340980135409A01A2
:100B9000351F9D0135209D01351FA501231FA7018C
:100BA000351FAC013520AC013540AC01351FB40117
:100BB000231FB6012320B6012340B6013540B801FA
:100BC000351FBB013520BB01351FC301231FC501E4
:100BD0002320C501351FCA013520CA013540CA018D
:100BE000351FD201231FD4012320D4012340D40177
:100BF0003540D601351FD9013520D901351FE10116
:100C0000231FE3012320E3013520E601351FE8011E
:100C10003520E8013540E801351FF001231FF201BE
:100C20002320F2012340F2013540F401351FF70182
:100C30003520F701351FFF013520FF01231F010279
:100C400023200102351F0602363E06023520060229
:100C500035400602351F0E0235200E02231F1002FA
:100C6000232010022340100235401202351F1402C7
:100C700035201502351F1D0235201D02231F1F02BE
:100C800023201F02351F2302352023023540240272
:100C9000351F2C0235202C02231F2E0223202E026A
:100CA00023402E0235403002351F320235203202F9
:100CB00035403302351F3B0235203B02231F3D02E6
:100CC00023203D0223403D02351F410235204102D1
:100CD00035404202351F4A0235204A02231F4C028A
:100CE00023204C0223404C0235404E02351F500257
:100CF0003520500235405102351F59023520590226
:100D0000231F5B0223205B0223405B02351F5F022F
:100D100035205F0235406002351F680235206802C9
:100D2000231F6A0223206A0223406A0235406C02B4
:100D3000351F6E0235206E0235406F02351F770277
:100D400035207702231F790223207902234079027C
:100D5000351F7D0235207D0235407E02351F86021B
:100D600035208602231F8802232088022340880220
:100D700035408A02351F8C0235208C0235408D02A9
:100D8000351F950235209502231F970223209702D5
:100D900023409702351F9B0235209B0235409C0261
:100DA000351FA4023520A402231FA6022320A60279
:100DB0002340A6023540A802351FAA023520AA0208
:100DC0003540AB02351FB3023520B302231FB502F5
:100DD0002320B5022340B502351FB9023520B902E0
:100DE0003540BA02351FC2023520C202231FC40299
:100DF0002320C4022340C4023540C602351FC80266
:100E00003520C8023540C902351FD1023520D10234
:100E1000231FD3022320D3022340D302351FD7023E
:100E20003520D7023540D802351FE0023520E002D8
:100E3000231FE2022320E2022340E2023540E402C3
:100E4000351FE6023520E6023540E702351FEF0286
:100E50003520EF02231FF1022320F1022340F1028B
:100E6000351FF5023520F5023540F602351FFE022A
:100E70003520FE02231F000323200003234000032C
:100E800035400203351F04033520040335400503B4
:100E9000351F0D0335200D03231F0F0323200F03E0
:100EA00023400F03351F130335201303354014036C
:100EB000351F1C0335201C03231F1E0323201E0384
:100EC00023401E0335402003351F22033520220313
:100ED00035402303351F2B0335202B03231F2D0300
:100EE00023202D0323402D03351F310335203103EB
:100EF00035403203351F3A0335203A03231F3C03A4
:100F000023203C0323403C0335403E03351F400370
:100F10003520400335404103351F4903352049033F
:100F2000231F4B0323204B0323404B03351F4F0349
:100F300035204F0335405003351F580335205803E3
:100F4000231F5A0323205A0323405A0335405C03CE
:100F5000351F5E0335205E0335405F03351F670391
:100F600035206703231F6903232069032340690396
:100F7000351F6D0335206D0335406E03351F760335
:100F800035207603231F780323207803234078033A
:100F900035407A03351F7C0335207C0335407D03C3
:100FA000351F850335208503231F870323208703EF
:100FB00023408703351F8B0335208B0335408C037B
:100FC000351F940335209403231F96032320960393
:100FD000234096033540980335209A03351F9B0321
:100FE00035409B03351FA3033520A303231FA5030F
:100FF0002320A5032340A5033520A903351FAA03F9
:101000003540AA03351FB2033520B203231FB403B2
:101010002320B4032340B4033540B6033520B8037E
:10102000351FB9033540B903351FC1033520C1034E
:10103000231FC3032320C3032340C3033520C70357
:10104000351FC8033540C803351FD0033520D003F2
:10105000231FD2032320D2032340D2033540D403DD
:101060003520D603351FD7033540D703351FDF039F
:101070003520DF03231FE1032320E1032340E103A5
:101080003520E503351FE6033540E603351FEE0343
:101090003520EE03231FF0032320F0032340F00349
:1010A0003540F2033520F403351FF5033540F503D1
:1010B000351FFD033520FD03231FFF032320FF03FE
:1010C0002340FF0335200304351F04043540040486
:1010D000351F0C0435200C04231F0E0423200E049E
:1010E00023400E043540100435201204351F13042C
:1010F00035401304351F1B0435201B04231F1D041A
:1011000023201D0423401D0435202104351F220403
:1011100035402204351F2A0435202A04231F2C04BD
:1011200023202C0423402C0435402E043520300489
:10113000351F310435403104351F39043520390459
:10114000231F3B0423203B0423403B0435203F0462
:10115000351F400435404004351F480435204804FD
:10116000231F4A0423204A0423404A0435404C04E8
:1011700035204E04351F4F0435404F04351F5704AA
:1011800035205704231F59042320590423405904B0
:10119000351F5E0435405E04351F66043520660445
:1011A000231F6804232068042340680435406A0430
:1011B00035206C04351F6D0435406D04351F7504F2
:1011C000231F77042320770423407704351F7C04F2
:1011D00035207C0435407C04351F8404231F86049D
:1011E0002320860423408604352088043540880463
:1011F000351F8B0435208B0435408B04351F930439
:10120000231F95042320950423409504351F9A0439
:1012100035209A0435409A04351FA204231FA404E4
:101220002320A4042340A4043520A6043540A604AA
:10123000351FA9043520A9043540A904351FB10480
:10124000231FB3042320B3042340B304351FB80481
:101250003520B8043540B804351FC004231FC2042C
:101260002320C2042340C2043520C4043540C404F2
:10127000351FC7043520C7043540C704351FCF04C8
:10128000231FD1042320D1042340D104351FD604C9
:101290003520D6043540D604351FDE04231FE00474
:1012A0002320E0042340E0043520E2043540E2043A
:1012B000351FE5043520E5043540E504361FED040F
:1012C000231FEF042320EF042340EF04351FF40411
:1012D0003520F4043540F404231FFE042320FE04CB
:1012E0002340FE04351F000535200005354000056C
:1012F000351F03053520030535400305351F12054D
:101300003520120535401205231F1C0523201C051E
:1013100023401C05351F1E0535201E0535401E05C2
:10132000351F21053520210535402105351F3005A4
:101330003520300535403005231F3A0523203A0576
:1013400023403A05351F3C0535203C0535403C051A
:10135000351F3F0535203F0535403F05351F4E05FC
:1013600035204E0535404E05231F580523205805CE
:1013700023405805351F5A0535205A0535405A0572
:10138000351F5D0535205D0535405D05351F6C0554
:1013900035206C0535406C05232076052340760505
:1013A000231F7705351F78053520780535407805EA
:1013B000351F7B0535207B0535407B05351F8A05AC
:1013C00035208A0535408A0523209405234094055D
:1013D000231F9505351F9605352096053540960542
:1013E000351F990535209905354099054D6F6E00DB
:1013F000446965004D697400446F6E004672650073
:1014000053616D00536F6E00EC13F013F413F81377
:10141000FC1300140414552D4261686E2D44697349
:10142000706C61792076302E3100667565722053BC
:10143000746174696F6E2046464D2D4E6965646512
:1014400072757273656C000011241FBECFE5D8E081
:10145000DEBFCDBF10E0A0E6B0E0E6EEF4E202C0F1
:1014600005900D92A637B107D9F710E0A6E7B0E0D6
:1014700001C01D92A73BB107E1F70E9475110C94C2
:1014800071120C940000AB9A85E08A95F1F7000088
:10149000AB98089595B39F7095BB95B3807F892BCA
:1014A00085BB0E94430A08951F93182FAA9A0E9491
:1014B0004A0A812F8295807F0E944A0A85EF8A9589
:1014C000F1F700001F9108951F93182FAA980E940A
:1014D0004A0A812F8295807F0E944A0A80EE8A956F
:1014E000F1F71F91089581E00E94640A8FE39FE164
:1014F0000197F1F700C00000089584B38C6F84BB9E
:1015000085B3837085BB8FE59AEE0197F1F700C034
:10151000000080E30E944A0A8FE19EE40197F1F700
:1015200000C000000E94430A8FE99FE00197F1F795
:1015300000C000000E94430A8FE99FE00197F1F785
:1015400000C0000080E20E944A0A8FE19EE40197F9
:10155000F1F700C0000088E20E94640A8CE00E945B
:10156000640A86E00E94640A0E94730A089582E079
:101570000E94640A8FE39FE10197F1F700C0000029
:101580000895613049F0613028F0623039F06330FD
:1015900051F406C0805805C0805403C0805701C074
:1015A00080530E94640A0895EF92FF92CF93DF93D5
:1015B000E82EE7017E01F92EE70102C00E94540ADD
:1015C00089918823D9F7DF91CF91FF90EF9008950B
:1015D000CF93DF93EC0103C00E94540A2196FE01D1
:1015E00084918823C9F7DF91CF9108951F93CF93FA
:1015F000DF93EB01880F880F880F80640E94640AD4
:1016000018E089910E94540A1150D9F7DF91CF91C7
:101610001F9108950F931F93CF93DF938B01880F32
:10162000880F880F80640E94640AC0E0D0E0F8014F
:10163000EC0FFD1F84910E94540A2196C830D105F9
:10164000B1F7DF91CF911F910F9108951F920F92E3
:101650000FB60F921124EF92FF920F931F932F93C7
:101660003F934F935F936F937F938F939F93AF932A
:10167000BF93EF93FF938091760090917700A091B4
:101680007800B09179000196A11DB11D809376007C
:1016900090937700A0937800B093790080917600C2
:1016A00090917700A0917800B0917900803821E581
:1016B000920721E0A20720E0B20704F160917600D2
:1016C00070917700809178009091790020E831E561
:1016D00041E050E00E9442126093760070937700E0
:1016E000809378009093790080917D00873019F481
:1016F00010927D0003C08F5F80937D006091760023
:101700007091770080917800909179002CE3E22E1F
:10171000F12C012D112DA80197010E944212309346
:101720007B0020937A008091AA00823051F490913E
:1017300074009923D1F0915090937400992399F4F7
:1017400011C060917600709177008091780090913F
:101750007900A80197010E94421261157105810567
:10176000910519F481E080937C00FF91EF91BF9186
:10177000AF919F918F917F916F915F914F913F9129
:101780002F911F910F91FF90EF900F900FBE0F9030
:101790001F9018951F920F920FB60F9211242F933E
:1017A0003F934F938F939F93EF93FF938091A2006A
:1017B000C99B0AC0813011F41092A2008091A4004C
:1017C0008F5F8093A40055C08823D9F581E0809372
:1017D000A20080937F002091A100822F877041F4A6
:1017E000E22FE695E695E695F0E0E455FF4F10828E
:1017F0008091A400982F9450953018F41092A8006E
:1018000019C08B508430B0F481E08093A800E22F9F
:10181000E695E695E695F0E0E455FF4F3081422FDE
:10182000477081E090E002C0880F991F4A95E2F767
:10183000382B30832F5F2093A1001092A4001092C8
:10184000A3008091A3008F5F8093A300853688F06A
:101850008091A1008B3319F481E080937E0082E0B7
:101860008093A80081E080937F001092A3001092E3
:10187000A100FF91EF919F918F914F913F912F91F7
:101880000F900FBE0F901F9018952F923F924F927E
:101890005F926F927F928F929F92AF92BF92CF9200
:1018A000DF92EF92FF920F931F93DF93CF9300D0BD
:1018B00000D0CDB7DEB77B018C015A01822F90E0BA
:1018C000FA01E80FF91F1082D22EDA946D2C7724DA
:1018D00067FC7094460D571DCD2C882499243AE05E
:1018E000232E312C412C512C9C01215030403A8325
:1018F00029835C834B832EC0E114F104010511059B
:1019000069F4C401860D971DE981FA818E179F073E
:101910002CF420E2EB81FC8120830AC0C801B701CE
:10192000A20191010E942012605DEB81FC81608325
:10193000C801B701A20191010E94201279018A0118
:10194000CA942B813C81215030403C832B830894E6
:1019500081089108C7FED0CFE114F10401051105FB
:1019600051F0F3013196EA0DFB1D8BE202C0829328
:10197000DA94D7FEFCCF0F900F900F900F90CF917D
:10198000DF911F910F91FF90EF90DF90CF90BF906C
:10199000AF909F908F907F906F905F904F903F900F
:1019A0002F900895DF92EF92FF920F931F93609113
:1019B000760070917700809178009091790020EA0C
:1019C0003CE840E050E00E944212D22E2093A70053
:1019D0006091760070917700809178009091790005
:1019E00050E1E52E5EE0F52E012D112DA8019701A5
:1019F0000E944212DD0C8D2D880F880F8D0D281B43
:101A00002093B50060917600709177008091780006
:101A100090917900A80197010E94421228E532E0D6
:101A200040E050E00E944212D22E2093A900609123
:101A30007600709177008091780090917900A801EC
:101A400097010E9442124CE3E42EF12C012D112D3E
:101A5000A80197010E944212DD0C8D2D880F880F7E
:101A60008D0D281B2093B600609176007091770051
:101A70008091780090917900A80197010E9442120C
:101A80002AE030E040E050E00E944212D22E209343
:101A9000A500609176007091770080917800909118
:101AA0007900A80197010E944212DD0C8D2D880F4C
:101AB000880F8D0D681B6093B4001F910F91FF90EC
:101AC000EF90DF9008959091A600961711F460E0D2
:101AD00001C061E00E94C10A08950F931F93CF9344
:101AE000DF93182F1092A00061E00E94630DE09137
:101AF0007D00F0E0EE0FFF1FE85FFB4E2591349173
:101B0000C9010E94E80A812F8C5F62E00E94630D88
:101B1000CEE9D0E08091A700805D88838091B500F8
:101B2000805D8983CE010E94D40A812F8A5F61E0A3
:101B30000E94C10A0AE308831982CE010E94D40AD6
:101B4000812F895F63E00E94630D8091A900805D11
:101B500088838091B600805D8983CE010E94D40A7B
:101B6000812F875F61E00E94C10A08831982CE013C
:101B70000E94D40A812F865F64E00E94630D8091E9
:101B8000A500805D88838091B400805D8983CE014B
:101B90000E94D40ADF91CF911F910F910895CF93A6
:101BA000DF93262FA0E0B0E0CEE8D0E0BC01CD016D
:101BB000AE010E94450CCE010E94D40ADF91CF9164
:101BC000089581E090E000907D0002C0880F991F89
:101BD0000A94E2F7089520917D00263059F030E014
:101BE0002F5F3F4F81E090E002C0880F991F2A9538
:101BF000E2F7089581E00895803411F0880F089588
:101C000081E0089520E030E090E0482F50E0BA01F4
:101C1000022E02C0759567950A94E2F761709627C7
:101C20002F5F3F4F2830310591F7892F0895BF92DC
:101C3000CF92DF92EF92FF920F931F93DF93CF9398
:101C40000F92CDB7DEB780917E00882309F405C1DD
:101C500010927E008091B000807F0E94020EF82ECC
:101C60008091B1000E94020EE82E8091B2000E9485
:101C7000020E082F8091B30087700E94020E182F69
:101C80008091AF00807E0E94020ED82E8091B0001D
:101C90008F700E94020EC82E8091AE00807E0E943E
:101CA000020EB82E8091AF008F710E94020E8B251C
:101CB000DC248D0DFE24F026F1268F0D09F0CDC019
:101CC0008091B10091E082FF90E08091B10083FDAE
:101CD0009E5F8091B10084FD9C5F8091AF0001E028
:101CE00085FF00E08091AF0086FD0E5F8091AF0020
:101CF00087FD0C5F8091B00080FD085F8091B0008F
:101D000081FD065F8091B00082FD0C5E8091AE0087
:101D100011E085FF10E08091AE0086FD1E5F80918E
:101D2000AE0087FD1C5F8091AF0080FD185F809141
:101D3000AF0081FD165F8091AF0082FD1C5E809137
:101D4000AF0083FD185D892F815080937D002CE3C7
:101D5000129F90011124E02FF0E060E17EE0E69F09
:101D6000A001E79F500DF69F500D1124240F351F41
:101D7000442737FD4095542F209376003093770009
:101D8000409378005093790085E061E099830E9448
:101D9000C10A9981892F90E061E00E94CF0D80E611
:101DA00090E00E94D40A8091B000807F0E94020ED1
:101DB000E82E8091B1000E94020ED82E8091B200D0
:101DC0000E94020EF82E8091B30087700E94020ECE
:101DD000ED24EF248E2590E061E00E94CF0D82E695
:101DE00090E00E94D40A802F90E063E00E94CF0D23
:101DF00080E690E00E94D40A8091AF00807E0E942D
:101E0000020E082F8091B0008F700E94020E802772
:101E100090E061E00E94CF0D82E690E00E94D40A3B
:101E2000812F90E063E00E94CF0D80E690E00E9459
:101E3000D40A8091AE00807E0E94020E182F8091FD
:101E4000AF008F710E94020E812790E061E00E9436
:101E5000CF0D82E690E00E94D40A0F90CF91DF91DF
:101E60001F910F91FF90EF90DF90CF90BF9008955A
:101E700090918000982341F0909180008095892373
:101E80008093800081E0089580E00895982F20914C
:101E90008000282349F08091800020918000909557
:101EA000922390938000089580E0089590918C0093
:101EB00090938D00ECE8F0E0229120938C0089B3A0
:101EC00080958083922798239093800008950E94A4
:101ED000560F80EE0E94460F80938A00882309F4F3
:101EE000E9C09AE09093740092E090937C00909106
:101EF000AA00923009F0DEC0803459F48091A60027
:101F000090E0019665E070E00E940D128093A600BB
:101F10000895803211F48FEF03C0803819F481E006
:101F200080938900F8948091A6008230C1F08330BC
:101F300020F4813009F09AC007C0833009F445C00D
:101F4000843009F093C072C08091890090917D0027
:101F5000890F67E00E94011290937D0087C0209155
:101F6000760030917700409178005091790060912F
:101F70008900772767FD7095E0E1FEE06E9FC00164
:101F80006F9F900D7E9F900D1124AA2797FDA0951D
:101F9000BA2F820F931FA41FB51F809376009093D2
:101FA0007700A0937800B093790020917A00309167
:101FB0007B004CE350E0649FC001659F900D749FCF
:101FC000900D1124820F931F2CC020917600309128
:101FD00077004091780050917900609189007727CF
:101FE00067FD7095ECE3F0E06E9FC0016F9F900D70
:101FF0007E9F900D1124AA2797FDA095BA2F820FDE
:10200000931FA41FB51F8093760090937700A09331
:102010007800B093790080917A0090917B00860FD0
:10202000971F90937B0080937A0020C01DBC1CBC3E
:10203000609176007091770080917800909179009E
:102040002CE330E040E050E00E944212CA01B901A6
:102050002CE330E040E050E00E94E2116093760013
:102060007093770080937800909379008091760048
:1020700090917700A0917800B0917900B7FF19C0D6
:102080008091760090917700A0917800B0917900CE
:1020900080589E4AAE4FBF4F809376009093770052
:1020A000A0937800B093790080917D008150809357
:1020B0007D00789408956F927F928F929F92AF9255
:1020C000BF92CF92DF92EF92FF920F931F93CF9325
:1020D000DF936623D1F420917A0030917B00309316
:1020E00085002093840021E030E0A90100907D006C
:1020F00002C0440F551F0A94E2F7409386003093C4
:1021000088002093870010928300409187005091AF
:102110008800009183006091840070918500109187
:102120008600F0EA8F2EF5E09F2E9C012E5F3F4F38
:10213000F90165907490F901A591B491F901A59008
:10214000B49037C0AF016901F9013296C591D491BD
:10215000CE0DDF1D6C177D0728F4F9013196E4914F
:10216000E12339F4FA0131962C5F3F4F641675066E
:1021700048F7A417B507A8F0602F70E0A69F90015C
:10218000A79F300DB69F300D1124240F351FF60187
:102190003296659174914F5F5F4F2115310549F07B
:1021A00019C0103411F0110F01C011E00F5F4A196E
:1021B0005B09202F30E0289D7001299DF00C389D8F
:1021C000F00C11249A01220F331F220F331F280F06
:1021D000391FB9CF50938800409387000093830044
:1021E000709385006093840010938600C901DF918D
:1021F000CF911F910F91FF90EF90DF90CF90BF9004
:10220000AF909F908F907F906F900895EF92FF9284
:102210000F931F93CF93DF93E82EF62EEA018901E7
:102220000E94C10AFE013296859194918017910710
:1022300088F0F801EE0FFF1FEE0FFF1FEC0FFD1FE0
:1022400032968591949120917A0030917B00821B87
:10225000930B14C0081B190BF801EE0FFF1FEE0FB4
:10226000FF1FEC0FFD1F32968591949120917A000B
:1022700030917B00821B930B80569A4F62E00E9444
:10228000CF0DF801EE0FFF1FEE0FFF1FEC0FFD1F2C
:10229000E4918E2F8F7080938100E295EF70E09330
:1022A00082008E2D8D5F6F2D0E94C10AE091820009
:1022B000F0E0EE0FFF1FE959FF4F25913491C9015E
:1022C0000E94E80AE0918100F0E0EE0FFF1FEE535C
:1022D000FF4F25913491C9010E94E80ADF91CF9107
:1022E0001F910F91FF90EF9008950F931F931FBCC4
:1022F0008CE08EBD80E589BF84E294EF9BBD8ABDF2
:1023000087E085BD8FEF84BB0E947D0A8AB38F7101
:102310008ABB80EE8BBBD198D998D098D8988FEF94
:102320009DE4A0E781509040A040E1F700C000008C
:10233000D09A789410927C0000E01AE08FEF91EE32
:10234000A4E081509040A040E1F700C000008091DF
:102350007F00882399F310927F00802F60E00E9415
:10236000C10A802F8F5F612F0E940112092F809177
:10237000A80090E061E00E94CF0D002341F480E0CE
:1023800060E00E94C10A86E690E00E94D40A809133
:10239000A800823099F60E94170E80E061E00E944A
:1023A000C10A81E790E00E94D40A20917600309122
:1023B00077004091780050917900C90166E00E9451
:1023C000CF0DBCCF629FD001739FF001829FE00DC3
:1023D000F11D649FE00DF11D929FF00D839FF00DA4
:1023E000749FF00D659FF00D9927729FB00DE11D50
:1023F000F91F639FB00DE11DF91FBD01CF0111242D
:102400000895991B79E004C0991F961708F0961B50
:10241000881F7A95C9F78095089597FB092E07269E
:102420000AD077FD04D049D006D000201AF4709568
:1024300061957F4F0895F6F7909581959F4F089588
:10244000A1E21A2EAA1BBB1BFD010DC0AA1FBB1FB8
:10245000EE1FFF1FA217B307E407F50720F0A21B2A
:10246000B30BE40BF50B661F771F881F991F1A9497
:1024700069F760957095809590959B01AC01BD01C1
:10248000CF01089597FB092E05260ED057FD04D0E5
:10249000D7DF0AD0001C38F450954095309521952F
:1024A0003F4F4F4F5F4F0895F6F790958095709589
:1024B00061957F4F8F4F9F4F0895AA1BBB1B51E122
:1024C00007C0AA1FBB1FA617B70710F0A61BB70BA4
:1024D000881F991F5A95A9F780959095BC01CD0149
:0624E0000895F894FFCFFF
:1024E6002000207C20002D2D2D2D2D2D2D2D2D2D48
:0624F60000733A000A0029
:00000001FF
