:100000000C94230A0C94400A0C94400A0C94400A65
:100010000C94C90B0C94400A0C94250B0C94400AC8
:100020000C94400A0C94400A0C94400A0C94400A28
:100030000C94400A0C94400A0C94400A0C94400A18
:100040000C94400A0C94400A0C94400A0C94400A08
:100050000C94400A553320005538200055392000B3
:10006000540058005C00537565646261686E686F87
:100070006620004865646465726E6865696D20007D
:100080004F626572757273656C2042686620004825
:100090006F68656D61726B2000526965646265729C
:1000A00067200047696E6E6865696D20004E2E2DD1
:1000B00045736368626163682000660073008000B6
:1000C0008F009900A300AD00FFFF6202021E050031
:1000D0000220050002400500141F0700142007003D
:1000E00014400700031F0A0003200A0003400A000F
:1000F000261F0D0026200D0026400D00141F16009F
:100100001420160014401600031F250003202500AC
:1001100003402500261F2B0026202B0026402B0005
:10012000141F34001420340014403400031F430013
:10013000141F52001420520014405200021F61008C
:10014000031FF700141F08011420080103201701E2
:1001500003401701261F1B01141F24011420240132
:1001600014402401031F33010320350103403501EE
:10017000141F3501261F3901262039012640390177
:10018000141F42011420420114404201031F510177
:100190000320510103405101141F5301261F570131
:1001A0002620570126405701141F600114206001CA
:1001B00014406001031F6F0103206F0103406F01B2
:1001C000261F72012620750126407501141F760135
:1001D000031F7E0114207E0114407E01261F810131
:1001E000141F8501031F8D0103208D0103408D0124
:1001F000261F90012620930126409301141F94018D
:10020000031F9C0114209C0114409C01261F9F0188
:10021000141FA301031FAB010320AB010340AB017B
:10022000261FAE012620AE012640B101141FB201E7
:10023000031FBA011420BA011440BA01261FBD01E0
:100240002620BD01141FC101031FC9010320C901DC
:100250000340C901261FCC012620CC012640CF0136
:10026000141FD001031FD8011420D8011440D80155
:10027000261FDB012620DB01141FDF01031FE7011E
:100280000320E7010340E7011420EA01261FEA01E9
:100290002620EA012640ED01141FEE01031FF6019E
:1002A0001420F6011440F601261FF9012620F90159
:1002B000141FFD01031F0502032005020340050270
:1002C00014200802261F08022620080226400B02DE
:1002D000141F0C02031F1402032014021420140222
:1002E00014401402261F170226201702141F1B0297
:1002F000031F23020320230203402302144026028B
:10030000261F26022620260226402902141F2A0222
:1003100014202A02031F3202032032021440320248
:10032000261F35022620350226403802141F3902C6
:1003300014203902031F41020320410203404102FD
:1003400014404402261F440226204402141F460281
:100350002640470214204802031F50020320500287
:1003600014405002261F530226205302141F550228
:100370001420550226405602031F5F0203205F022D
:1003800014405F0203406202261F620226206202BE
:10039000141F64021420640226406502031F6E02CB
:1003A00003206E0214406E02261F71022620710285
:1003B000141F73021420730226407402031F7D026F
:1003C00003207D0214407D0203408002261F80022C
:1003D00026208002141F82021420820226408302FB
:1003E000031F8C0203208C0214408C02261F8F02F4
:1003F00026208F02141F910214209102264092029F
:10040000031F9B0203209B0214409B0203409E0299
:10041000261F9E0226209E02141FA0021420A00266
:100420002640A102031FAA020320AA021440AA0226
:10043000261FAD022620AD02141FAF021420AF020A
:100440002640B002031FB9020320B9021440B902CA
:100450000340BC02261FBC022620BC02141FBE02A1
:100460001420BE022640BF02031FC8020320C80298
:100470001440C802261FCB022620CB02141FCD0237
:100480001420CD022640CE02031FD7020320D7023C
:100490001440D7020340DA02261FDA022620DA02CD
:1004A000141FDC021420DC022640DD02031FE602DA
:1004B0000320E6021440E602261FE9022620E90294
:1004C000141FEB021420EB022640EC02031FF5027E
:1004D0000320F5021440F5020340F802261FF8023B
:1004E0002620F802141FFA021420FA022640FB020A
:1004F000031F04030320040314400403261F0703FF
:1005000026200703141F09031420090326400A03A9
:10051000031F1303032013031440130303401603A4
:10052000261F160326201603141F18031420180371
:1005300026401903031F2203032022031440220331
:10054000261F250326202503141F27031420270315
:1005500026402803031F31030320310314403103D5
:1005600003403403261F340326203403141F3603AC
:100570001420360326403703031F400303204003A3
:1005800014404003261F430326204303141F450342
:100590001420450326404603031F4F0303204F0347
:1005A00014404F0303405203261F520326205203D8
:1005B000141F54031420540326405503031F5E03E5
:1005C00003205E0314405E03261F6103262061039F
:1005D000141F63031420630326406403031F6D0389
:1005E00003206D0314406D0303407003261F700346
:1005F00026207003141F7203142072032640730315
:10060000031F7C0303207C0314407C03261F7F030D
:1006100026207F03141F81031420810326408203B8
:10062000031F8B0303208B0314408B0303408E03B3
:10063000261F8E0326208E03141F90031420900380
:1006400026409103031F9A0303209A0314409A0340
:10065000261F9D0326209D03141F9F0314209F0324
:100660002640A003031FA9030320A9031440A903E4
:100670000340AC03261FAC032620AC03141FAE03BB
:100680001420AE032640AF03031FB8030320B803B2
:100690001440B803261FBB032620BB03141FBD0351
:1006A0001420BD032640BE03031FC7030320C70356
:1006B0001440C7030340CA03261FCA032620CA03E7
:1006C0001420CC032640CD03141FCE03031FD603F2
:1006D0000320D6031440D603261FD9032620D903AE
:1006E0001420DB032640DC03141FDD03031FE50396
:1006F0000320E5031440E5030340E803261FE80355
:100700002620E8031420EA032640EB03141FEC0321
:10071000031FF4030320F4031440F403261FF7031C
:100720002620F7031420F9032640FA03141FFB03C5
:10073000031F0304032003041440030403400604BE
:10074000261F060426200604142008042640090457
:10075000141F0A04031F120403201204144012047D
:10076000261F1504262015041420170426401804FB
:10077000141F1904031F2104032021041440210421
:1007800003402404261F24042620240414202604C5
:1007900026402704141F2804031F300403203004BC
:1007A00014403004261F330426203304142035045B
:1007B00026403604141F3704031F3F0403203F0460
:1007C00014403F0403404204261F420426204204F2
:1007D0001420440426404504141F4604031F4E04FD
:1007E00003204E0414404E04261F510426205104B9
:1007F0001420530426405404141F5504031F5D04A1
:1008000003205D0414405D0403406004261F60045F
:10081000262060041420620426406304141F64042C
:10082000031F6C0403206C0414406C04261F6F0427
:1008300026206F041420710426407204141F7304D0
:10084000031F7B0403207B0414407B0403407E04CD
:10085000261F7E0426207E04142080042640810466
:10086000141F8204031F8A0414408A04261F8D0467
:1008700026208D0426409004141F91041420940413
:10088000031F9904032099041440990403409C0415
:10089000261F9C0426209C0426409F04141FA004AD
:1008A000031FA8041420A8041440A804261FAB04A6
:1008B0002620AE042640AE04141FAF04031FB70465
:1008C0001420B7041440B7040320BA040340BA0448
:1008D000261FBA042620BD042640BD04141FBE04F2
:1008E000031FC6041420C6041440C604261FC904EE
:1008F0002620CC042640CC04141FCD04031FD504AD
:100900001420D5041440D5040320D8040340D8048F
:10091000261FD8042620DB042640DB04141FDC0439
:10092000021FE4041420E4041440E404141FEB0444
:10093000031FF3041420F3041440F3040320F6040B
:100940000340F604261FF9042620F9042640F90482
:10095000141FFD04021F02051420020514400205A5
:10096000141F11051420110514401105031F14054F
:100970000320140503401405261F1705262017051C
:1009800026401705021F2005141F200514202005EE
:1009900014402005141F2F0514202F0514402F0587
:1009A000031F32050320320503403205261F35059B
:1009B0002620350526403505141F3E0514203E052A
:1009C00014403E05141F4D0514204D0514404D05DF
:1009D000031F50050320500503405005261F5305F3
:1009E0002620530526405305141F5C0514205C0582
:1009F00014405C05141F6B0514206B0514406B0537
:100A0000031F6E0503206E0503406E05261F71054A
:100A10002620710526407105141F7A0514207A05D9
:100A200014407A05141F890514208905144089058E
:100A3000031F8C0503208C0503408C05261F8F05A2
:100A400026208F0526408F05141F98051420980531
:100A500014409805FFFF6302101F080010200800D3
:100A600010400800251F120025201200254012000A
:100A7000111F14001120140011401400001F170052
:100A80000020170000401700101F2600102026002D
:100A900010402600251F3000252030002540300062
:100AA000011E32000120320001403200111F4400BB
:100AB0001120440011404400111F62001120620007
:100AC00011406200001FF3000020F3000040F3001B
:100AD000001FFD000040FD00001F070100200C0169
:100AE00000400C0100201401101F160110201601F7
:100AF000251F2001001F25010020250100402501A0
:100B000000202F01101F3401102034011040340147
:100B1000251F3E0125203E0125403E01001F4301C7
:100B20000020430100404301101F4B01001F5201F0
:100B30001020520110405201101F5A01251F5C0164
:100B400025205C0125405C01001F6101002061013E
:100B500000406101101F6901001F70011020700129
:100B600010407001101F7801251F7A0125407A017D
:100B7000001F7F0100207F0100407F01101F8701BF
:100B8000251F8901001F8E0110208E0110408E014B
:100B9000101F9601251F980125409801001F9D01F7
:100BA00000209D0100409D01101FA501251FA701E8
:100BB000001FAC011020AC011040AC01101FB401AB
:100BC000251FB6012520B6012540B601001FBB0137
:100BD0000020BB010040BB01101FC301251FC50140
:100BE0002520C501001FCA011020CA011040CA01FA
:100BF000101FD201251FD4012520D4012540D40186
:100C0000001FD9010020D9010040D901101FE101C6
:100C1000251FE3012520E301001FE8011020E80162
:100C20001040E801101FF001251FF2012520F201FC
:100C30002540F201001FF7010020F7010040F701F5
:100C4000101FFF011020FF01251F010225200102B6
:100C5000001F06020020060210400602101F0E02AE
:100C600010200E02251F1002252010022540100220
:100C7000001F14020020150200401502101F1D0263
:100C800010201D02251F1F0225201F02001F230206
:100C90000020230210402402101F2C0210202C02DE
:100CA000251F2E0225202E0225402E020040300254
:100CB000001F32020020320210403302101F3B029C
:100CC00010203B02251F3D0225203D0225403D020C
:100CD000001F41020020410210404202101F4A0240
:100CE00010204A02251F4C0225204C0225404C02B0
:100CF00000404E02001F50020020500210405102DE
:100D0000101F590210205902251F5B0225205B028B
:100D100025405B02001F5F0200205F02104060025E
:100D2000101F680210206802251F6A0225206A022F
:100D300025406A0200406C02001F6E0200206E0215
:100D400010406F02101F770210207702251F7902D2
:100D50002520790225407902001F7D0200207D02B6
:100D600010407E02101F860210208602251F880276
:100D7000252088022540880200408A02001F8C023C
:100D800000208C0210408D02101F95021020950249
:100D9000251F97022520970225409702001F9B02DE
:100DA00000209B0210409C02101FA4021020A402ED
:100DB000251FA6022520A6022540A6020040A80263
:100DC000001FAA020020AA021040AB02101FB302AB
:100DD0001020B302251FB5022520B5022540B5021B
:100DE000001FB9020020B9021040BA02101FC2024F
:100DF0001020C202251FC4022520C4022540C402BF
:100E00000040C602001FC8020020C8021040C902EC
:100E1000101FD1021020D102251FD3022520D3029A
:100E20002540D302001FD7020020D7021040D8026D
:100E3000101FE0021020E002251FE2022520E2023E
:100E40002540E2020040E402001FE6020020E60224
:100E50001040E702101FEF021020EF02251FF102E1
:100E60002520F1022540F102001FF5020020F502C5
:100E70001040F602101FFE021020FE02251F000384
:100E8000252000032540000300400203001F040347
:100E90000020040310400503101F0D0310200D0354
:100EA000251F0F0325200F0325400F03001F1303E9
:100EB0000020130310401403101F1C0310201C03F8
:100EC000251F1E0325201E0325401E03004020036E
:100ED000001F22030020220310402303101F2B03B6
:100EE00010202B03251F2D0325202D0325402D0326
:100EF000001F31030020310310403203101F3A035A
:100F000010203A03251F3C0325203C0325403C03C9
:100F100000403E03001F40030020400310404103F7
:100F2000101F490310204903251F4B0325204B03A5
:100F300025404B03001F4F0300204F031040500378
:100F4000101F580310205803251F5A0325205A0349
:100F500025405A0300405C03001F5E0300205E032F
:100F600010405F03101F670310206703251F6903EC
:100F70002520690325406903001F6D0300206D03D0
:100F800010406E03101F760310207603251F780390
:100F9000252078032540780300407A03001F7C0356
:100FA00000207C0310407D03101F85031020850363
:100FB000251F87032520870325408703001F8B03F8
:100FC00000208B0310408C03101F94031020940307
:100FD000251F96032520960325409603004098037D
:100FE00000209A03001F9B0310409B03101FA303C4
:100FF0001020A303251FA5032520A5032540A50335
:101000000020A903001FAA031040AA03101FB20367
:101010001020B203251FB4032520B4032540B403D8
:101020000040B6030020B803001FB9031040B90305
:10103000101FC1031020C103251FC3032520C303B4
:101040002540C3030020C703001FC8031040C80386
:10105000101FD0031020D003251FD2032520D20358
:101060002540D2030040D4030020D603001FD7033D
:101070001040D703101FDF031020DF03251FE103FB
:101080002520E1032540E1030020E503001FE603DE
:101090001040E603101FEE031020EE03251FF0039F
:1010A0002520F0032540F0030040F2030020F40364
:1010B000001FF5031040F503101FFD031020FD0372
:1010C000251FFF032520FF032540FF030020030405
:1010D000001F040410400404101F0C0410200C0412
:1010E000251F0E0425200E0425400E040040100488
:1010F00000201204001F130410401304101F1B04CF
:1011000010201B04251F1D0425201D0425401D043F
:1011100000202104001F220410402204101F2A0472
:1011200010202A04251F2C0425202C0425402C04E3
:1011300000402E0400203004001F31041040310410
:10114000101F390410203904251F3B0425203B04BF
:1011500025403B0400203F04001F40041040400491
:10116000101F480410204804251F4A0425204A0463
:1011700025404A0400404C0400204E04001F4F0448
:1011800010404F04101F570410205704251F590406
:101190002520590425405904001F5E0410405E04B8
:1011A000101F660410206604251F680425206804AB
:1011B0002540680400406A0400206C04001F6D0490
:1011C00010406D04101F7504251F77042520770437
:1011D00025407704001F7C0410207C0410407C0410
:1011E000101F8404251F86042520860425408604BC
:1011F0000020880400408804001F8B0410208B040A
:1012000010408B04101F9304251F9504252095047E
:1012100025409504001F9A0410209A0410409A0457
:10122000101FA204251FA4042520A4042540A40403
:101230000020A6040040A604001FA9041020A90451
:101240001040A904101FB104251FB3042520B304C6
:101250002540B304001FB8041020B8041040B8049F
:10126000101FC004251FC2042520C2042540C2044B
:101270000020C4040040C404001FC7041020C70499
:101280001040C704101FCF04251FD1042520D1040E
:101290002540D104001FD6041020D6041040D604E7
:1012A000101FDE04251FE0042520E0042540E00493
:1012B0000020E2040040E204001FE5041020E504E1
:1012C0001040E504101FF4041020F4041040F4044E
:1012D000251FFE042520FE042540FE04001F0005F6
:1012E0000020000500400005101F03051020030525
:1012F00010400305101F12051020120510401205A2
:10130000251F1C0525201C0525401C05001F1E054A
:1013100000201E0500401E05101F2105102021057C
:1013200010402105101F30051020300510403005F9
:10133000251F3A0525203A0525403A05001F3C05A2
:1013400000203C0500403C05101F3F0510203F05D4
:1013500010403F05101F4E0510204E0510404E0551
:10136000251F58052520580525405805001F5A05FA
:1013700000205A0500405A05101F5D0510205D052C
:1013800010405D05101F6C0510206C0510406C05A9
:10139000251F76052520760525407605001F780552
:1013A0000020780500407805101F7B0510207B0584
:1013B00010407B05101F8A0510208A0510408A0501
:1013C000251F94052520940525409405001F9605AA
:1013D00000209605111F96051120960511409605CF
:1013E000004099054D6F6E00446965004D697400B9
:1013F000446F6E004672650053616D00536F6E005E
:10140000E413E813EC13F013F413F813FC13552D45
:101410004261686E2D446973706C61792076302E5C
:1014200033202832303133290066756572205374B9
:101430006174696F6E2046464D2D4E696564657214
:10144000757273656C0011241FBECFE5D4E0DEBF5A
:10145000CDBF10E0A0E6B0E0ECE0F5E202C0059000
:101460000D92A236B107D9F710E0A2E6B0E001C0B4
:101470001D92A33AB107E1F70E944B110C9484121C
:101480000C940000AB9A85E08A95F1F70000AB98C8
:10149000089595B39F7095BB95B3807F892B85BBCD
:1014A0000E94420A08951F93182FAA9A0E94490A7F
:1014B000812F8295807F0E94490A85EF8A95F1F7F6
:1014C00000001F9108951F93182FAA980E94490A9F
:1014D000812F8295807F0E94490A80EE8A95F1F7DC
:1014E0001F91089581E00E94630A8FE39FE10197B5
:1014F000F1F700C00000089584B38C6F84BB85B3FE
:10150000837085BB8FE59AEE0197F1F700C000006C
:1015100080E30E94490A8FE19EE40197F1F700C041
:1015200000000E94420A8FE99FE00197F1F700C096
:1015300000000E94420A8FE99FE00197F1F700C086
:10154000000080E20E94490A8FE19EE40197F1F7D2
:1015500000C0000088E20E94630A8CE00E94630AD7
:1015600086E00E94630A0E94720A089582E00E9447
:10157000630A8FE39FE10197F1F700C0000008952F
:10158000613049F0613028F0623039F0633051F455
:1015900006C0805805C0805403C0805701C08053E6
:1015A0000E94630A0895EF92FF92CF93DF93E82E93
:1015B000E7017E01F92EE70102C00E94530A8991DA
:1015C0008823D9F7DF91CF91FF90EF900895CF93C3
:1015D000DF93EC0103C00E94530A2196FE0184911F
:1015E0008823C9F7DF91CF9108951F93CF93DF939D
:1015F000EB01880F880F880F80640E94630A18E04F
:1016000089910E94530A1150D9F7DF91CF911F9110
:1016100008950F931F93CF93DF938B01880F880F4B
:10162000880F80640E94630AC0E0D0E0F801EC0FEC
:10163000FD1F84910E94530A2196C830D105B1F74D
:10164000DF91CF911F910F9108951F920F920FB6C6
:101650000F921124EF92FF920F931F932F933F93BA
:101660004F935F936F937F938F939F93AF93BF93AA
:10167000EF93FF938091620090916300A0916400CA
:10168000B09165000196A11DB11D809362009093F9
:101690006300A0936400B093650080916200909114
:1016A0006300A0916400B0916500803821E5920745
:1016B00021E0A20720E0B20704F16091620070917E
:1016C0006300809164009091650020E831E541E07D
:1016D00050E00E9455126093620070936300809303
:1016E00064009093650080916900873019F410922E
:1016F000690003C08F5F8093690060916200709100
:10170000630080916400909165002CE3E22EF12C3F
:10171000012D112DA80197010E94551230936700E9
:101720002093660080919600823051F49091600081
:101730009923D1F0915090936000992399F411C0AE
:1017400060916200709163008091640090916500E7
:10175000A80197010E945512611571058105910537
:1017600019F481E080936800FF91EF91BF91AF91F0
:101770009F918F917F916F915F914F913F912F91A9
:101780001F910F91FF90EF900F900FBE0F901F9041
:1017900018951F920F920FB60F9211242F933F931B
:1017A0004F938F939F93EF93FF9380918E00C99BEC
:1017B0000AC0813011F410928E00809190008F5FEA
:1017C0008093900055C08823D9F581E080938E00E6
:1017D00080936B0020918D00822F877041F4E22F5F
:1017E000E695E695E695F0E0E856FF4F1082809189
:1017F0009000982F9450953018F41092940019C0CE
:101800008B508430B0F481E080939400E22FE69511
:10181000E695E695F0E0E856FF4F3081422F47709D
:1018200081E090E002C0880F991F4A95E2F7382BBB
:1018300030832F5F20938D001092900010928F00C4
:1018400080918F008F5F80938F00853688F0809124
:101850008D008B3319F481E080936A0082E08093DD
:10186000940081E080936B0010928F0010928D00A5
:10187000FF91EF919F918F914F913F912F910F90F9
:101880000FBE0F901F9018952F923F924F925F922C
:101890006F927F928F929F92AF92BF92CF92DF9280
:1018A000EF92FF920F931F93DF93CF9300D000D05E
:1018B000CDB7DEB77B018C015A01822F90E0FA018F
:1018C000E80FF91F1082D22EDA946D2C772467FC72
:1018D0007094460D571DCD2C882499243AE0232E70
:1018E000312C412C512C9C01215030403A832983CA
:1018F0005C834B832EC0E114F1040105110569F4EA
:10190000C401860D971DE981FA818E179F072CF47B
:1019100020E2EB81FC8120830AC0C801B701A2014B
:1019200091010E943312605DEB81FC816083C801EC
:10193000B701A20191010E94331279018A01CA9470
:101940002B813C81215030403C832B8308948108BB
:101950009108C7FED0CFE114F1040105110551F043
:10196000F3013196EA0DFB1D8BE202C08293DA94FB
:10197000D7FEFCCF0F900F900F900F90CF91DF917B
:101980001F910F91FF90EF90DF90CF90BF90AF909D
:101990009F908F907F906F905F904F903F902F908F
:1019A0000895DF92EF92FF920F931F936091620070
:1019B00070916300809164009091650020EA3CE89A
:1019C00040E050E00E945512D22E20939300609187
:1019D000620070916300809164009091650050E115
:1019E000E52E5EE0F52E012D112DA80197010E9434
:1019F0005512DD0C8D2D880F880F8D0D281B20931F
:101A0000A1006091620070916300809164009091E8
:101A10006500A80197010E94551228E532E040E0D8
:101A200050E00E945512D22E2093950060916200E2
:101A3000709163008091640090916500A801970106
:101A40000E9455124CE3E42EF12C012D112DA8011A
:101A500097010E945512DD0C8D2D880F880F8D0D7A
:101A6000281B2093A2006091620070916300809116
:101A7000640090916500A80197010E9455122AE028
:101A800030E040E050E00E945512D22E20939100A9
:101A90006091620070916300809164009091650094
:101AA000A80197010E945512DD0C8D2D880F880F1B
:101AB0008D0D681B6093A0001F910F91FF90EF9018
:101AC000DF90089590919200961711F460E001C0A4
:101AD00061E00E94C00A08950F931F93CF93DF9394
:101AE000182F10928C0061E00E94620DE091690055
:101AF000F0E0EE0FFF1FE050FC4E25913491C9013C
:101B00000E94E70A812F8C5F62E00E94620DCAE8A2
:101B1000D0E080919300805D88838091A100805DFA
:101B20008983CE010E94D30A812F8A5F61E00E94DF
:101B3000C00A0AE308831982CE010E94D30A812FCA
:101B4000895F63E00E94620D80919500805D8883CB
:101B50008091A200805D8983CE010E94D30A812FEB
:101B6000875F61E00E94C00A08831982CE010E944B
:101B7000D30A812F865F64E00E94620D80919100FC
:101B8000805D88838091A000805D8983CE010E9462
:101B9000D30ADF91CF911F910F910895CF93DF93D7
:101BA000262FA0E0B0E0CAE7D0E0BC01CD01AE0135
:101BB0000E94440CCE010E94D30ADF91CF91089578
:101BC00081E090E00090690002C0880F991F0A949C
:101BD000E2F7089520916900263059F030E02F5F38
:101BE0003F4F81E090E002C0880F991F2A95E2F7ED
:101BF000089581E00895803411F0880F089581E000
:101C0000089520E030E090E0482F50E0BA01022E25
:101C100002C0759567950A94E2F7617096272F5F69
:101C20003F4F2830310591F7892F0895AF92BF9229
:101C3000CF92DF92EF92FF920F931F9380919C00BF
:101C4000807F0E94010E182F80919D000E94010E3E
:101C5000082F80919E000E94010EA82E80919F0067
:101C600087700E94010EE82E80919B00807E0E946A
:101C7000010EF82E80919C008F700E94010ED82ECC
:101C800080919A00807E0E94010EC82E80919B0058
:101C90008F710E94010E8C25FD248F0D10271A25AF
:101CA0001E25810F09F0B1C080919D0021E082FFC7
:101CB00020E080919D0083FD2E5F80919D0084FD3A
:101CC0002C5F80919B0071E0E72EF12C012D112DEE
:101CD00085FD03C0EE24FF24870180919B0086FFD1
:101CE00008C082E090E0A0E0B0E0E80EF91E0A1F14
:101CF0001B1F80919B0087FF08C084E090E0A0E05C
:101D0000B0E0E80EF91E0A1F1B1F80919C0080FFA7
:101D100008C088E090E0A0E0B0E0E80EF91E0A1FDD
:101D20001B1F80919C0081FF08C08AE090E0A0E02A
:101D3000B0E0E80EF91E0A1F1B1F80919C0082FF75
:101D400008C084E190E0A0E0B0E0E80EF91E0A1FB0
:101D50001B1F30919A0061E070E080E090E035FD5B
:101D600003C060E070E0CB0130919A0036FF04C000
:101D70006E5F7F4F8F4F9F4F30919A0037FF04C0A7
:101D80006C5F7F4F8F4F9F4F30919B0030FF04C09F
:101D9000685F7F4F8F4F9F4F30919B0031FF04C092
:101DA000665F7F4F8F4F9F4F30919B0032FF04C083
:101DB0006C5E7F4F8F4F9F4F30919B0033FF04C06D
:101DC000685D7F4F8F4F9F4FF8942150209369009B
:101DD0002CE330E040E050E00E94F5115B016C0123
:101DE000C801B70120E13EE040E050E00E94F5115B
:101DF000A60EB71EC81ED91EA0926200B092630044
:101E0000C0926400D092650078941F910F91FF906A
:101E1000EF90DF90CF90BF90AF90089590916C00BD
:101E2000982341F090916C008095892380936C00F9
:101E300081E0089580E00895982F20916C00282378
:101E400049F080916C0020916C00909592239093C2
:101E50006C00089580E00895909178009093790047
:101E6000E8E7F0E022912093780089B380958083A1
:101E70009227982390936C0008950E942C0F80EE77
:101E80000E941C0F80937600882309F4E9C09AE031
:101E90009093600092E09093680090919600923049
:101EA00009F0DEC0803459F48091920090E00196F0
:101EB00065E070E00E9420128093920008958032C5
:101EC00011F48FEF03C0803819F481E0809375001E
:101ED000F894809192008230C1F0833020F48130F8
:101EE00009F09AC007C0833009F445C0843009F076
:101EF00093C072C08091750090916900890F67E06E
:101F00000E9414129093690087C020916200309162
:101F100063004091640050916500609175007727DF
:101F200067FD7095E0E1FEE06E9FC0016F9F900D30
:101F30007E9F900D1124AA2797FDA095BA2F820F9E
:101F4000931FA41FB51F8093620090936300A0931A
:101F50006400B093650020916600309167004CE307
:101F600050E0649FC001659F900D749F900D1124F7
:101F7000820F931F2CC0209162003091630040912A
:101F800064005091650060917500772767FD70953A
:101F9000ECE3F0E06E9FC0016F9F900D7E9F900D6F
:101FA0001124AA2797FDA095BA2F820F931FA41F73
:101FB000B51F8093620090936300A0936400B09378
:101FC00065008091660090916700860F971F90933F
:101FD00067008093660020C01DBC1CBC609162003D
:101FE0007091630080916400909165002CE330E073
:101FF00040E050E00E945512CA01B9012CE330E0E4
:1020000040E050E00E94F51160936200709363001D
:1020100080936400909365008091620090916300CA
:10202000A0916400B0916500B7FF19C08091620073
:1020300090916300A0916400B091650080589E4A21
:10204000AE4FBF4F8093620090936300A0936400F3
:10205000B093650080916900815080936900789405
:1020600008956F927F928F929F92AF92BF92CF927C
:10207000DF92EF92FF920F931F93CF93DF9366232C
:10208000D1F4209166003091670030937100209365
:10209000700021E030E0A9010090690002C0440F07
:1020A000551F0A94E2F74093720030937400209316
:1020B000730010926F004091730050917400009172
:1020C0006F00609170007091710010917200F0EAE1
:1020D0008F2EF5E09F2E9C012E5F3F4FF9016590FA
:1020E0007490F901A591B491F901A590B49037C00D
:1020F000AF016901F9013296C591D491CE0DDF1D72
:102100006C177D0728F4F9013196E491E12339F445
:10211000FA0131962C5F3F4F6416750648F7A417F5
:10212000B507A8F0602F70E0A69F9001A79F300D23
:10213000B69F300D1124240F351FF601329665919C
:1021400074914F5F5F4F2115310549F019C010346C
:1021500011F0110F01C011E00F5F4A195B09202F28
:1021600030E0289D7001299DF00C389DF00C112461
:102170009A01220F331F220F331F280F391FB9CFA7
:10218000509374004093730000936F00709371003C
:102190006093700010937200C901DF91CF911F917D
:1021A0000F91FF90EF90DF90CF90BF90AF909F90F6
:1021B0008F907F906F900895EF92FF920F931F93EF
:1021C000CF93DF93E82EF62EEA0189010E94C00A20
:1021D000FE013296859194918017910788F0F8015D
:1021E000EE0FFF1FEE0FFF1FEC0FFD1F32968591C4
:1021F00094912091660030916700821B930B14C06C
:10220000081B190BF801EE0FFF1FEE0FFF1FEC0F5D
:10221000FD1F329685919491209166003091670060
:10222000821B930B80569A4F62E00E94CE0DF801FC
:10223000EE0FFF1FEE0FFF1FEC0FFD1FE4918E2F1F
:102240008F7080936D00E295EF70E0936E008E2D9D
:102250008D5F6F2D0E94C00AE0916E00F0E0EE0FDE
:10226000FF1FE05AFF4F25913491C9010E94E70AF0
:10227000E0916D00F0E0EE0FFF1FE654FF4F259157
:102280003491C9010E94E70ADF91CF911F910F910C
:10229000FF90EF9008951F931FBC8CE08EBD80E5EA
:1022A00089BF84E294EF9BBD8ABD87E085BD8FEF37
:1022B00084BB0E947C0A8AB38F718ABB80EE8BBB81
:1022C000D198D998D098D8988FEF9DE4A0E7815005
:1022D0009040A040E1F700C00000D09A789410929E
:1022E00068001FEF809168008F3F21F080916800A7
:1022F0008093960080916800813019F1813020F040
:10230000823009F05DC052C00E94720A8AE060E02B
:102310000E94C00A8EE094E10E94E70A83E061E037
:102320000E94C00A89E294E10E94E70A8FEF93EDD0
:10233000A0E381509040A040E1F700C000000E945F
:10234000720A109368000E94720A84E59AE060E0C5
:102350000E9431109C0184E160E044E55AE00E9453
:10236000DC1084E59AE061E00E9431109C0184E178
:1023700061E044E55AE00E94DC1088EC90E060E007
:102380000E9431109C0180E060E048EC50E00E9427
:10239000DC1088EC90E061E00E9431109C0180E04C
:1023A00061E048EC50E00E94DC109CCF1093680084
:1023B0000E94720A0E94D10C8EE00E946C0D92CF96
:1023C0000E943D0F8FEF99EFA0E081509040A04018
:1023D000E1F700C0000080916A00882309F482CFF1
:1023E00010926A000E94160E7DCF629FD001739FEB
:1023F000F001829FE00DF11D649FE00DF11D929FA1
:10240000F00D839FF00D749FF00D659FF00D9927DF
:10241000729FB00DE11DF91F639FB00DE11DF91F03
:10242000BD01CF0111240895991B79E004C0991FC3
:10243000961708F0961B881F7A95C9F7809508951E
:1024400097FB092E07260AD077FD04D049D006D085
:1024500000201AF4709561957F4F0895F6F79095D6
:1024600081959F4F0895A1E21A2EAA1BBB1BFD0167
:102470000DC0AA1FBB1FEE1FFF1FA217B307E40763
:10248000F50720F0A21BB30BE40BF50B661F771FBB
:10249000881F991F1A9469F760957095809590959B
:1024A0009B01AC01BD01CF01089597FB092E0526C4
:1024B0000ED057FD04D0D7DF0AD0001C38F4509559
:1024C0004095309521953F4F4F4F5F4F0895F6F758
:1024D00090958095709561957F4F8F4F9F4F089590
:1024E000AA1BBB1B51E107C0AA1FBB1FA617B7073A
:1024F00010F0A61BB70B881F991F5A95A9F7809556
:0C2500009095BC01CD010895F894FFCF28
:02250C000A00C3
:00000001FF
