:100000002BC045C044C043C042C041C040C03FC0F7
:100010003EC00BC13CC03BC03AC039C038C037C03D
:1000200036C035C034C0552D4261686E2D446973A9
:10003000706C61792076302E3100667565722053C0
:10004000746174696F6E2046464D2D4E6965646516
:1000500072757273656C000011241FBECFE5D4E089
:10006000DEBFCDBF10E0A0E6B0E0E0EFF7E002C0F9
:1000700005900D92A637B107D9F710E0A6E7B0E0DA
:1000800001C01D92A538B107E1F7D0D2AFC3B8CFF8
:10009000979A84E08A95F1F79798089592B3937CA4
:1000A00092BB92B3807F86958695892B82BBF0DFC9
:1000B00008951F93182F969AF1DF812F8295807FE4
:1000C000EDDF88EB8A95F1F71F9108951F93182FA4
:1000D0009698E4DF812F8295807FE0DF88EA8A9519
:1000E000F1F71F91089581E0F1DF8FE697E1019725
:1000F000F1F700C00000089581B38C6F81BB82B31B
:10010000837082BB87EC9FEA0197F1F700C0000083
:1001100080E3C4DF87E99AE30197F1F700C00000AC
:10012000B7DF87EB9BE00197F1F700C00000B0DF7D
:1001300087EB9BE00197F1F700C0000080E2AEDFA3
:1001400087E99AE30197F1F700C0000088E2BEDF7B
:100150008CE0BCDF86E0BADFC6DF089582E0B6DF60
:100160008FE697E10197F1F700C000000895613034
:1001700049F0613028F0623039F0633049F406C04C
:10018000805805C0805403C0805701C080539EDF53
:100190000895EF92FF92CF93DF93E82EE7017E015F
:1001A000F92EE70101C085DF89918823E1F7DF910E
:1001B000CF91FF90EF900895CF93DF93EC0102C0B1
:1001C00078DF2196FE0184918823D1F7DF91CF91CA
:1001D00008951F93CF93DF93EB01880F880F880F4B
:1001E000806474DF18E0899164DF1150E1F7DF91DA
:1001F000CF911F9108950F931F93CF93DF938B019E
:10020000880F880F880F806461DFC0E0D0E0F801BC
:10021000EC0FFD1F84914DDF2196C830D105B9F751
:10022000DF91CF911F910F9108951F920F920FB6FA
:100230000F9211248F93809184008F5F80938400AC
:100240008F910F900FBE0F901F90189582B730912D
:10025000840020E0280F311DC901089512BE1092BC
:1002600084000895DF92EF92FF920F931F93CF9334
:10027000DF9383E083BFF2DFA49AAC98E7DFBC0191
:1002800080E090E03AD220E030EC45ED52E431D20B
:1002900087FDF4CF82E083BFDD24D39410E0DEDF5E
:1002A000A49AAC98D3DFBC0180E090E026D220E095
:1002B00030E042E552E41DD287FDF4CFA498AC9A19
:1002C000C5DFBC0180E090E018D220E030E046E1DC
:1002D00053E40FD287FDF4CF3BC0C8E0D0E000E884
:1002E000E12EFF248BE790E0E80EF91EB7DFA49A19
:1002F000AC98F7018081802369F0A8DFBC0180E021
:1003000090E0FBD120E030E042E552E4F2D187FDFD
:10031000F4CF0CC09BDFBC0180E090E0EED120E088
:1003200030E043EC52E4E5D187FDF4CFA498AC9AD9
:100330008DDFBC0180E090E0E0D120E030E046E1DC
:1003400053E4D7D187FDF4CF0695219779F61F5F47
:100350001D1518F283DFA49AAC9878DFBC0180E009
:1003600090E0CBD120E030E043EC52E4C2D187FDF5
:10037000F4CFA498AC9A6ADFBC0180E090E0BDD1D4
:1003800020E030E046E153E4B4D187FDF4CF809122
:100390007B008B3329F0893341F429E0D22E02C04F
:1003A00093E0D92E113009F47ACF58DF4FDFBC012A
:1003B00080E090E0A2D120E030E84BEB53E4FED1A6
:1003C00018160CF43EC09C99F1CF9C9BFECFCCE755
:1003D000D0E011E001C0182F188288E0E82EF12C3F
:1003E00000E83CDF33DFBC0180E090E086D120E014
:1003F00030E046E153E4E2D1181614F4115022C063
:100400009C99F0CF2BDF9C9BFECF20DFBC0180E0CE
:1004100090E073D120E030E046E952E46AD187FFF2
:1004200003C08881800F888306950894E108F1084D
:10043000E114F104B1F6812F8F5F2196893059F6CE
:1004400001C010E0812FDF91CF911F910F91FF909C
:10045000EF90DF900895A498AC9A89B7816089BF26
:1004600008958BE380937B0083E680937C0084E097
:1004700080937D00F7DE8DE380937B00F3DE89E3DC
:1004800080937B0010928200EDDE089580918000C1
:10049000282F30E020773070359527958770822B94
:1004A000089520917F0030E027703070322F22278E
:1004B000330F330F80917E0090E087709070969597
:1004C000982F882797958795282B392B80917D0029
:1004D00090E08F779070282B392BC90108952091D7
:1004E0007F0030E020773070E6E0220F331FEA957E
:1004F000E1F780917E0090E08077907073E0880F44
:10050000991F7A95E1F7282B392B80917C0090E098
:100510008F779070282B392BC90108951F93CF93A3
:10052000DF93B4DF182FBDDFEC01D9DF9C012097EA
:1005300029F0D0937900C093780004C0C09178006E
:10054000D09179002115310529F03093770020935F
:10055000760004C020917600309177001123B9F421
:1005600080917A00882399F0C659D040CE0161EB82
:1005700071E028D1462F4F5F225D3040C90162E310
:1005800071E020D1862F880F860F480F01C040E010
:1005900010937A00842FDF91CF911F910895BF921D
:1005A000CF92DF92EF92FF920F931F93CF93DF933F
:1005B0009C01C42EDD24C7FCD094FB01EC0DFD1D75
:1005C00010824150E42EFF24E7FCF094FB01EE0D75
:1005D000FF1DC0E0D0E00AE010E00894C108D10897
:1005E000A0E2BA2E17C02115310541F4CE018E0DBF
:1005F0009F1D8C159D0514F4B08205C0C901B8017A
:10060000E1D0805D8083C901B801DCD09B014150FD
:100610003197219747FFE7CFDF91CF911F910F913E
:10062000FF90EF90DF90CF90BF900895EF92FF92F0
:100630000F931F93DF93CF93CDB7DEB760970FB6BD
:10064000F894DEBF0FBECDBF8FEF81BB55DD80E6D6
:1006500090E09FDD00DF8FEF9BE4ADE181509040A3
:10066000A040E1F700C000007894FBDE8FEF9DE32F
:10067000A9E481509040A040E1F700C0000033DDC4
:10068000BCE3FB2E8E010F5F1F4FAFE5BAEE119753
:10069000F1F700C00000F0927B00E4DD80E060E054
:1006A00066DDFFDEB80144E07ADFC80172DD81E774
:1006B00090E06FDD14DFB80144E071DFC80169DD4F
:1006C00083E790E066DDE2DE90E0B80143E067DFBB
:1006D000C8015FDD23DFE82E8823B9F280E061E006
:1006E00046DD8E2D90E0B80143E059DFC80151DDB1
:1006F000CCCF40D008F481E00895E89409C097FB7E
:100700003EF490958095709561957F4F8F4F9F4FE8
:100710009923A9F0F92F96E9BB279395F69587952C
:1007200077956795B795F111F8CFFAF4BB0F11F4EF
:1007300060FF1BC06F5F7F4F8F4F9F4F16C0882396
:1007400011F096E911C0772321F09EE8872F762FCC
:1007500005C0662371F096E8862F70E060E02AF00D
:100760009A95660F771F881FDAF7880F96958795F9
:1007700097F90895990F0008550FAA0BE0E8FEEFCE
:1007800016161706E807F907C0F012161306E40755
:10079000F50798F0621B730B840B950B39F40A264E
:1007A00061F0232B242B252B21F408950A2609F42C
:1007B000A140A6958FEF811D811D0895DBDF08F410
:1007C0008FEF0895AA1BBB1B51E107C0AA1FBB1FD7
:1007D000A617B70710F0A61BB70B881F991F5A95CD
:1007E000A9F780959095BC01CD010895F894FFCFAD
:1007F0006C636420696E697469616C697A656421EF
:060800000078005F00001B
:00000001FF
